:020000040000FA
:060000000A128A110C280F
:10000800FE00030EF0000A08F1000A128A113028D7
:100018000A128A110F2883010A128A1113288316DB
:1000280003138801860183120313880186018E0158
:100038008F011012901290149015101110141714AB
:10004800971017159711831603130C150B178B1799
:100058002C280A128A110C28831203130C1D352828
:1000680036283928150886000C1171088A00700E88
:080078008300FE0E7E0E09005C
:02400E003A3F37
:00000001FF
